{
  "abi": [
    {
      "anonymous": false,
      "inputs": [
        {
          "indexed": true,
          "internalType": "address",
          "name": "appAddress",
          "type": "address"
        },
        {
          "indexed": true,
          "internalType": "string",
          "name": "appName",
          "type": "string"
        }
      ],
      "name": "NewAppRegistered",
      "type": "event"
    },
    {
      "inputs": [
        {
          "internalType": "uint256",
          "name": "",
          "type": "uint256"
        }
      ],
      "name": "apps",
      "outputs": [
        {
          "internalType": "contract ReputyApp",
          "name": "",
          "type": "address"
        }
      ],
      "stateMutability": "view",
      "type": "function"
    },
    {
      "inputs": [],
      "name": "getApps",
      "outputs": [
        {
          "internalType": "contract ReputyApp[]",
          "name": "",
          "type": "address[]"
        }
      ],
      "stateMutability": "view",
      "type": "function"
    },
    {
      "inputs": [
        {
          "components": [
            {
              "internalType": "string",
              "name": "name",
              "type": "string"
            },
            {
              "internalType": "string",
              "name": "fullName",
              "type": "string"
            },
            {
              "internalType": "string",
              "name": "link",
              "type": "string"
            },
            {
              "internalType": "string",
              "name": "tag",
              "type": "string"
            },
            {
              "internalType": "string",
              "name": "symbol",
              "type": "string"
            },
            {
              "internalType": "string",
              "name": "logoURI",
              "type": "string"
            },
            {
              "internalType": "string",
              "name": "description",
              "type": "string"
            },
            {
              "internalType": "address[]",
              "name": "admins",
              "type": "address[]"
            }
          ],
          "internalType": "struct ReputyApp.InitParams",
          "name": "params",
          "type": "tuple"
        }
      ],
      "name": "registerApp",
      "outputs": [
        {
          "internalType": "contract ReputyApp",
          "name": "",
          "type": "address"
        }
      ],
      "stateMutability": "nonpayable",
      "type": "function"
    }
  ],
  "bytecode": {
    "object": "0x608060405234801561001057600080fd5b506131fe806100206000396000f3fe60806040523480156200001157600080fd5b5060043610620000465760003560e01c806361acc37e146200004b578063d66d756d146200007f578063d6f007481462000098575b600080fd5b620000626200005c36600462000224565b620000af565b6040516001600160a01b0390911681526020015b60405180910390f35b62000089620000da565b6040516200007691906200023e565b62000062620000a93660046200041b565b6200013e565b60008181548110620000c057600080fd5b6000918252602090912001546001600160a01b0316905081565b606060008054806020026020016040519081016040528092919081815260200182805480156200013457602002820191906000526020600020905b81546001600160a01b0316815260019091019060200180831162000115575b5050505050905090565b60008082604051620001509062000216565b6200015c919062000649565b604051809103906000f08015801562000179573d6000803e3d6000fd5b50600080546001810182559080527f290decd9548b62a8d60345a988386fc84ba6bc95484008f6362f93160ef3e5630180546001600160a01b0319166001600160a01b0383161790558351604051919250620001d5916200074e565b604051908190038120906001600160a01b038316907f80f077e68f8dac7c9536059a2244b6a05c61245c36e7443351c4d8a0cebbff8c90600090a392915050565b612a5c806200076d83390190565b6000602082840312156200023757600080fd5b5035919050565b6020808252825182820181905260009190848201906040850190845b81811015620002815783516001600160a01b0316835292840192918401916001016200025a565b50909695505050505050565b634e487b7160e01b600052604160045260246000fd5b604051610100810167ffffffffffffffff81118282101715620002ca57620002ca6200028d565b60405290565b604051601f8201601f1916810167ffffffffffffffff81118282101715620002fc57620002fc6200028d565b604052919050565b600082601f8301126200031657600080fd5b813567ffffffffffffffff8111156200033357620003336200028d565b62000348601f8201601f1916602001620002d0565b8181528460208386010111156200035e57600080fd5b816020850160208301376000918101602001919091529392505050565b600082601f8301126200038d57600080fd5b8135602067ffffffffffffffff821115620003ac57620003ac6200028d565b8160051b620003bd828201620002d0565b9283528481018201928281019087851115620003d857600080fd5b83870192505b84831015620004105782356001600160a01b0381168114620004005760008081fd5b82529183019190830190620003de565b979650505050505050565b6000602082840312156200042e57600080fd5b813567ffffffffffffffff808211156200044757600080fd5b9083019061010082860312156200045d57600080fd5b62000467620002a3565b8235828111156200047757600080fd5b620004858782860162000304565b8252506020830135828111156200049b57600080fd5b620004a98782860162000304565b602083015250604083013582811115620004c257600080fd5b620004d08782860162000304565b604083015250606083013582811115620004e957600080fd5b620004f78782860162000304565b6060830152506080830135828111156200051057600080fd5b6200051e8782860162000304565b60808301525060a0830135828111156200053757600080fd5b620005458782860162000304565b60a08301525060c0830135828111156200055e57600080fd5b6200056c8782860162000304565b60c08301525060e0830135828111156200058557600080fd5b62000593878286016200037b565b60e08301525095945050505050565b60005b83811015620005bf578181015183820152602001620005a5565b83811115620005cf576000848401525b50505050565b60008151808452620005ef816020860160208601620005a2565b601f01601f19169290920160200192915050565b600081518084526020808501945080840160005b838110156200063e5781516001600160a01b03168752958201959082019060010162000617565b509495945050505050565b60208152600082516101008060208501526200066a610120850183620005d5565b91506020850151601f19808685030160408701526200068a8483620005d5565b93506040870151915080868503016060870152620006a98483620005d5565b93506060870151915080868503016080870152620006c88483620005d5565b935060808701519150808685030160a0870152620006e78483620005d5565b935060a08701519150808685030160c0870152620007068483620005d5565b935060c08701519150808685030160e0870152620007258483620005d5565b935060e087015191508086850301838701525062000744838262000603565b9695505050505050565b6000825162000762818460208701620005a2565b919091019291505056fe60806040523480156200001157600080fd5b5060405162002a5c38038062002a5c83398101604081905262000034916200040a565b8060200151816080015181600090805190602001906200005692919062000163565b5080516200006c90600190602084019062000163565b505081518051839250600b91620000899183916020019062000163565b506020828101518051620000a4926001850192019062000163565b5060408201518051620000c291600284019160209091019062000163565b5060608201518051620000e091600384019160209091019062000163565b5060808201518051620000fe91600484019160209091019062000163565b5060a082015180516200011c91600584019160209091019062000163565b5060c082015180516200013a91600684019160209091019062000163565b5060e0820151805162000158916007840191602090910190620001f2565b5090505050620005cc565b828054620001719062000590565b90600052602060002090601f016020900481019282620001955760008555620001e0565b82601f10620001b057805160ff1916838001178555620001e0565b82800160010185558215620001e0579182015b82811115620001e0578251825591602001919060010190620001c3565b50620001ee9291506200024a565b5090565b828054828255906000526020600020908101928215620001e0579160200282015b82811115620001e057825182546001600160a01b0319166001600160a01b0390911617825560209092019160019091019062000213565b5b80821115620001ee57600081556001016200024b565b634e487b7160e01b600052604160045260246000fd5b60405161010081016001600160401b03811182821017156200029d576200029d62000261565b60405290565b604051601f8201601f191681016001600160401b0381118282101715620002ce57620002ce62000261565b604052919050565b600082601f830112620002e857600080fd5b81516001600160401b0381111562000304576200030462000261565b60206200031a601f8301601f19168201620002a3565b82815285828487010111156200032f57600080fd5b60005b838110156200034f57858101830151828201840152820162000332565b83811115620003615760008385840101525b5095945050505050565b600082601f8301126200037d57600080fd5b815160206001600160401b038211156200039b576200039b62000261565b8160051b620003ac828201620002a3565b9283528481018201928281019087851115620003c757600080fd5b83870192505b84831015620003ff5782516001600160a01b0381168114620003ef5760008081fd5b82529183019190830190620003cd565b979650505050505050565b6000602082840312156200041d57600080fd5b81516001600160401b03808211156200043557600080fd5b9083019061010082860312156200044b57600080fd5b6200045562000277565b8251828111156200046557600080fd5b6200047387828601620002d6565b8252506020830151828111156200048957600080fd5b6200049787828601620002d6565b602083015250604083015182811115620004b057600080fd5b620004be87828601620002d6565b604083015250606083015182811115620004d757600080fd5b620004e587828601620002d6565b606083015250608083015182811115620004fe57600080fd5b6200050c87828601620002d6565b60808301525060a0830151828111156200052557600080fd5b6200053387828601620002d6565b60a08301525060c0830151828111156200054c57600080fd5b6200055a87828601620002d6565b60c08301525060e0830151828111156200057357600080fd5b62000581878286016200036b565b60e08301525095945050505050565b600181811c90821680620005a557607f821691505b602082108103620005c657634e487b7160e01b600052602260045260246000fd5b50919050565b61248080620005dc6000396000f3fe608060405234801561001057600080fd5b50600436106101c35760003560e01c806370480275116100f9578063b88d4fde11610097578063dd7ad7c011610071578063dd7ad7c0146103a4578063e985e9c5146103b7578063ed50c699146103f3578063fa6414241461040657600080fd5b8063b88d4fde14610376578063bb0e4ea214610389578063c87b56dd1461039157600080fd5b80637835b425116100d35780637835b4251461034057806394e113ea1461035357806395d89b411461035b578063a22cb4651461036357600080fd5b8063704802751461031257806370a082311461032557806371b2c8631461033857600080fd5b80632c1fbeda1161016657806342842e0e1161014057806342842e0e146102d15780634e3e5695146102e45780634f6ccce7146102ec5780636352211e146102ff57600080fd5b80632c1fbeda146102835780632f745c591461029e57806330271964146102b157600080fd5b8063081812fc116101a2578063081812fc1461021e578063095ea7b31461024957806318160ddd1461025e57806323b872dd1461027057600080fd5b8062ce8e3e146101c857806301ffc9a7146101e657806306fdde0314610209575b600080fd5b6101d0610419565b6040516101dd9190611d37565b60405180910390f35b6101f96101f4366004611d8f565b61056c565b60405190151581526020016101dd565b610211610597565b6040516101dd9190611e11565b61023161022c366004611e24565b610629565b6040516001600160a01b0390911681526020016101dd565b61025c610257366004611e59565b610650565b005b6008545b6040519081526020016101dd565b61025c61027e366004611e83565b61076a565b61028b61079b565b6040516101dd9796959493929190611ebf565b6102626102ac366004611e59565b610b81565b6102626102bf366004611f56565b60136020526000908152604090205481565b61025c6102df366004611e83565b610c17565b610262610c32565b6102626102fa366004611e24565b610c41565b61023161030d366004611e24565b610cd4565b61025c610320366004611f56565b610d34565b610262610333366004611f56565b610dfa565b610262600581565b61025c61034e36600461201e565b610e80565b610262606481565b610211610f8a565b61025c610371366004612089565b610f99565b61025c6103843660046120c5565b610fa8565b610262600081565b61021161039f366004611e24565b610fe0565b61025c6103b236600461201e565b6110b4565b6101f96103c5366004612141565b6001600160a01b03918216600090815260056020908152604080832093909416825291909152205460ff1690565b610231610401366004611e24565b6111e2565b61025c61041436600461201e565b61120c565b60145460609060009067ffffffffffffffff81111561043a5761043a611f71565b60405190808252806020026020018201604052801561047f57816020015b60408051808201909152600080825260208201528152602001906001900390816104585790505b50905060005b60145481101561056657601481815481106104a2576104a2612174565b9060005260206000200160009054906101000a90046001600160a01b03168282815181106104d2576104d2612174565b6020026020010151600001906001600160a01b031690816001600160a01b031681525050601360006014838154811061050d5761050d612174565b60009182526020808320909101546001600160a01b03168352820192909252604001902054825183908390811061054657610546612174565b60209081029190910181015101528061055e816121a0565b915050610485565b50919050565b60006001600160e01b0319821663780e9d6360e01b1480610591575061059182611357565b92915050565b6060600080546105a6906121b9565b80601f01602080910402602001604051908101604052809291908181526020018280546105d2906121b9565b801561061f5780601f106105f45761010080835404028352916020019161061f565b820191906000526020600020905b81548152906001019060200180831161060257829003601f168201915b5050505050905090565b6000610634826113a7565b506000908152600460205260409020546001600160a01b031690565b600061065b82610cd4565b9050806001600160a01b0316836001600160a01b0316036106cd5760405162461bcd60e51b815260206004820152602160248201527f4552433732313a20617070726f76616c20746f2063757272656e74206f776e656044820152603960f91b60648201526084015b60405180910390fd5b336001600160a01b03821614806106e957506106e981336103c5565b61075b5760405162461bcd60e51b815260206004820152603d60248201527f4552433732313a20617070726f76652063616c6c6572206973206e6f7420746f60448201527f6b656e206f776e6572206f7220617070726f76656420666f7220616c6c00000060648201526084016106c4565b6107658383611409565b505050565b6107743382611477565b6107905760405162461bcd60e51b81526004016106c4906121ed565b6107658383836114f5565b600b805481906107aa906121b9565b80601f01602080910402602001604051908101604052809291908181526020018280546107d6906121b9565b80156108235780601f106107f857610100808354040283529160200191610823565b820191906000526020600020905b81548152906001019060200180831161080657829003601f168201915b505050505090806001018054610838906121b9565b80601f0160208091040260200160405190810160405280929190818152602001828054610864906121b9565b80156108b15780601f10610886576101008083540402835291602001916108b1565b820191906000526020600020905b81548152906001019060200180831161089457829003601f168201915b5050505050908060020180546108c6906121b9565b80601f01602080910402602001604051908101604052809291908181526020018280546108f2906121b9565b801561093f5780601f106109145761010080835404028352916020019161093f565b820191906000526020600020905b81548152906001019060200180831161092257829003601f168201915b505050505090806003018054610954906121b9565b80601f0160208091040260200160405190810160405280929190818152602001828054610980906121b9565b80156109cd5780601f106109a2576101008083540402835291602001916109cd565b820191906000526020600020905b8154815290600101906020018083116109b057829003601f168201915b5050505050908060040180546109e2906121b9565b80601f0160208091040260200160405190810160405280929190818152602001828054610a0e906121b9565b8015610a5b5780601f10610a3057610100808354040283529160200191610a5b565b820191906000526020600020905b815481529060010190602001808311610a3e57829003601f168201915b505050505090806005018054610a70906121b9565b80601f0160208091040260200160405190810160405280929190818152602001828054610a9c906121b9565b8015610ae95780601f10610abe57610100808354040283529160200191610ae9565b820191906000526020600020905b815481529060010190602001808311610acc57829003601f168201915b505050505090806006018054610afe906121b9565b80601f0160208091040260200160405190810160405280929190818152602001828054610b2a906121b9565b8015610b775780601f10610b4c57610100808354040283529160200191610b77565b820191906000526020600020905b815481529060010190602001808311610b5a57829003601f168201915b5050505050905087565b6000610b8c83610dfa565b8210610bee5760405162461bcd60e51b815260206004820152602b60248201527f455243373231456e756d657261626c653a206f776e657220696e646578206f7560448201526a74206f6620626f756e647360a81b60648201526084016106c4565b506001600160a01b03919091166000908152600660209081526040808320938352929052205490565b61076583838360405180602001604052806000815250610fa8565b610c3e60056064612250565b81565b6000610c4c60085490565b8210610caf5760405162461bcd60e51b815260206004820152602c60248201527f455243373231456e756d657261626c653a20676c6f62616c20696e646578206f60448201526b7574206f6620626f756e647360a01b60648201526084016106c4565b60088281548110610cc257610cc2612174565b90600052602060002001549050919050565b6000818152600260205260408120546001600160a01b0316806105915760405162461bcd60e51b8152602060048201526018602482015277115490cdcc8c4e881a5b9d985b1a59081d1bdad95b88125160421b60448201526064016106c4565b6000805b601254811015610d88576012805482908110610d5657610d56612174565b6000918252602090912001546001600160a01b03163303610d7657600191505b80610d80816121a0565b915050610d38565b5080610da757604051637eeb1e5160e11b815260040160405180910390fd5b50601280546001810182556000919091527fbb8a6a4669ba250d26cd7a459eca9d215f8307e33aebe50379bc5a3617ec34440180546001600160a01b0319166001600160a01b0392909216919091179055565b60006001600160a01b038216610e645760405162461bcd60e51b815260206004820152602960248201527f4552433732313a2061646472657373207a65726f206973206e6f7420612076616044820152683634b21037bbb732b960b91b60648201526084016106c4565b506001600160a01b031660009081526003602052604090205490565b6000805b601254811015610ed4576012805482908110610ea257610ea2612174565b6000918252602090912001546001600160a01b03163303610ec257600191505b80610ecc816121a0565b915050610e84565b5080610ef357604051637eeb1e5160e11b815260040160405180910390fd5b6064831115610f155760405163bd62220b60e01b815260040160405180910390fd5b6001600160a01b0384166000908152601360205260409020839055610f3984611666565b81604051610f479190612264565b6040519081900381209084906001600160a01b038716907fa434c2dff3c65afb7bcf9d1af00b4212c55c549557c57cd3c8516eeedd50c92090600090a450505050565b6060600180546105a6906121b9565b610fa43383836116ec565b5050565b610fb23383611477565b610fce5760405162461bcd60e51b81526004016106c4906121ed565b610fda848484846117ba565b50505050565b6060610feb826113a7565b600060136000610ffa85610cd4565b6001600160a01b03166001600160a01b031681526020019081526020016000205490506000611028826117d3565b60405163262535ab60e01b815290915073__$73404bca215039ad2d3acfcbae96071684$__9063262535ab9061106790600b9086908690600401612280565b600060405180830381865af4158015611084573d6000803e3d6000fd5b505050506040513d6000823e601f3d908101601f191682016040526110ac9190810190612335565b949350505050565b6000805b6012548110156111085760128054829081106110d6576110d6612174565b6000918252602090912001546001600160a01b031633036110f657600191505b80611100816121a0565b9150506110b8565b508061112757604051637eeb1e5160e11b815260040160405180910390fd5b6001600160a01b0384166000908152601360205260409020546111569061114f9085906123ac565b606461181f565b6001600160a01b03851660009081526013602052604090205561117884611666565b816040516111869190612264565b604080519182900382206001600160a01b038716600081815260136020908152939020548452909286927fa4a6ce47d880603714b4a1cc0548f5cc560cd09e50b04ac1ba83d3b7d6fb541d91015b60405180910390a450505050565b601481815481106111f257600080fd5b6000918252602090912001546001600160a01b0316905081565b6000805b60125481101561126057601280548290811061122e5761122e612174565b6000918252602090912001546001600160a01b0316330361124e57600191505b80611258816121a0565b915050611210565b508061127f57604051637eeb1e5160e11b815260040160405180910390fd5b6001600160a01b0384166000908152601360205260409020546112a390849061181f565b6001600160a01b0385166000908152601360205260409020549093506112d5906112ce9085906123c4565b6000611837565b6001600160a01b0385166000908152601360205260409020556112f784611666565b816040516113059190612264565b604080519182900382206001600160a01b038716600081815260136020908152939020548452909286927f7b97666b7336bde4e3937350e06e077c4abb1b8e67fe61c8e2472c6ff80c87a391016111d4565b60006001600160e01b031982166380ac58cd60e01b148061138857506001600160e01b03198216635b5e139f60e01b145b8061059157506301ffc9a760e01b6001600160e01b0319831614610591565b6000818152600260205260409020546001600160a01b03166114065760405162461bcd60e51b8152602060048201526018602482015277115490cdcc8c4e881a5b9d985b1a59081d1bdad95b88125160421b60448201526064016106c4565b50565b600081815260046020526040902080546001600160a01b0319166001600160a01b038416908117909155819061143e82610cd4565b6001600160a01b03167f8c5be1e5ebec7d5bd14f71427d1e84f3dd0314c0f7b2291e5b200ac8c7c3b92560405160405180910390a45050565b60008061148383610cd4565b9050806001600160a01b0316846001600160a01b031614806114ca57506001600160a01b0380821660009081526005602090815260408083209388168352929052205460ff165b806110ac5750836001600160a01b03166114e384610629565b6001600160a01b031614949350505050565b826001600160a01b031661150882610cd4565b6001600160a01b03161461152e5760405162461bcd60e51b81526004016106c4906123db565b6001600160a01b0382166115905760405162461bcd60e51b8152602060048201526024808201527f4552433732313a207472616e7366657220746f20746865207a65726f206164646044820152637265737360e01b60648201526084016106c4565b61159d8383836001611846565b826001600160a01b03166115b082610cd4565b6001600160a01b0316146115d65760405162461bcd60e51b81526004016106c4906123db565b600081815260046020908152604080832080546001600160a01b03199081169091556001600160a01b0387811680865260038552838620805460001901905590871680865283862080546001019055868652600290945282852080549092168417909155905184937fddf252ad1be2c89b69c2b068fc378daa952ba7f163c4a11628f55a4df523b3ef91a4505050565b61166f81610dfa565b60000361140657611684600a80546001019055565b600061168f600a5490565b905061169b8282611986565b50601480546001810182556000919091527fce6d7b5282bd9a3661ae061feed1dbda4e52ab073b1f9285be6e155d9c38d4ec0180546001600160a01b0383166001600160a01b031990911617905550565b816001600160a01b0316836001600160a01b03160361174d5760405162461bcd60e51b815260206004820152601960248201527f4552433732313a20617070726f766520746f2063616c6c65720000000000000060448201526064016106c4565b6001600160a01b03838116600081815260056020908152604080832094871680845294825291829020805460ff191686151590811790915591519182527f17307eab39ab6107e8899845ad3d59bd9653f200f220920489ca2b5937696c31910160405180910390a3505050565b604051636ccac49560e11b815260040160405180910390fd5b6000806117e260056064612250565b6117ec9084612250565b90508215806118105750600061180460056064612250565b61180e9085612420565b115b1561059157806110ac816121a0565b600081831061182e5781611830565b825b9392505050565b600081831161182e5781611830565b61185284848484611b1f565b60018111156118c15760405162461bcd60e51b815260206004820152603560248201527f455243373231456e756d657261626c653a20636f6e7365637574697665207472604482015274185b9cd9995c9cc81b9bdd081cdd5c1c1bdc9d1959605a1b60648201526084016106c4565b816001600160a01b03851661191d5761191881600880546000838152600960205260408120829055600182018355919091527ff3f7a9fe364faab93b216da50a3214154f22a0a2b415b23a84c8169e8b636ee30155565b611940565b836001600160a01b0316856001600160a01b031614611940576119408582611ba7565b6001600160a01b03841661195c5761195781611c44565b61197f565b846001600160a01b0316846001600160a01b03161461197f5761197f8482611cf3565b5050505050565b6001600160a01b0382166119dc5760405162461bcd60e51b815260206004820181905260248201527f4552433732313a206d696e7420746f20746865207a65726f206164647265737360448201526064016106c4565b6000818152600260205260409020546001600160a01b031615611a415760405162461bcd60e51b815260206004820152601c60248201527f4552433732313a20746f6b656e20616c7265616479206d696e7465640000000060448201526064016106c4565b611a4f600083836001611846565b6000818152600260205260409020546001600160a01b031615611ab45760405162461bcd60e51b815260206004820152601c60248201527f4552433732313a20746f6b656e20616c7265616479206d696e7465640000000060448201526064016106c4565b6001600160a01b038216600081815260036020908152604080832080546001019055848352600290915280822080546001600160a01b0319168417905551839291907fddf252ad1be2c89b69c2b068fc378daa952ba7f163c4a11628f55a4df523b3ef908290a45050565b6001811115610fda576001600160a01b03841615611b65576001600160a01b03841660009081526003602052604081208054839290611b5f9084906123c4565b90915550505b6001600160a01b03831615610fda576001600160a01b03831660009081526003602052604081208054839290611b9c9084906123ac565b909155505050505050565b60006001611bb484610dfa565b611bbe91906123c4565b600083815260076020526040902054909150808214611c11576001600160a01b03841660009081526006602090815260408083208584528252808320548484528184208190558352600790915290208190555b5060009182526007602090815260408084208490556001600160a01b039094168352600681528383209183525290812055565b600854600090611c56906001906123c4565b60008381526009602052604081205460088054939450909284908110611c7e57611c7e612174565b906000526020600020015490508060088381548110611c9f57611c9f612174565b6000918252602080832090910192909255828152600990915260408082208490558582528120556008805480611cd757611cd7612434565b6001900381819060005260206000200160009055905550505050565b6000611cfe83610dfa565b6001600160a01b039093166000908152600660209081526040808320868452825280832085905593825260079052919091209190915550565b602080825282518282018190526000919060409081850190868401855b82811015611d8257815180516001600160a01b03168552860151868501529284019290850190600101611d54565b5091979650505050505050565b600060208284031215611da157600080fd5b81356001600160e01b03198116811461183057600080fd5b60005b83811015611dd4578181015183820152602001611dbc565b83811115610fda5750506000910152565b60008151808452611dfd816020860160208601611db9565b601f01601f19169290920160200192915050565b6020815260006118306020830184611de5565b600060208284031215611e3657600080fd5b5035919050565b80356001600160a01b0381168114611e5457600080fd5b919050565b60008060408385031215611e6c57600080fd5b611e7583611e3d565b946020939093013593505050565b600080600060608486031215611e9857600080fd5b611ea184611e3d565b9250611eaf60208501611e3d565b9150604084013590509250925092565b60e081526000611ed260e083018a611de5565b8281036020840152611ee4818a611de5565b90508281036040840152611ef88189611de5565b90508281036060840152611f0c8188611de5565b90508281036080840152611f208187611de5565b905082810360a0840152611f348186611de5565b905082810360c0840152611f488185611de5565b9a9950505050505050505050565b600060208284031215611f6857600080fd5b61183082611e3d565b634e487b7160e01b600052604160045260246000fd5b604051601f8201601f1916810167ffffffffffffffff81118282101715611fb057611fb0611f71565b604052919050565b600067ffffffffffffffff821115611fd257611fd2611f71565b50601f01601f191660200190565b6000611ff3611fee84611fb8565b611f87565b905082815283838301111561200757600080fd5b828260208301376000602084830101529392505050565b60008060006060848603121561203357600080fd5b61203c84611e3d565b925060208401359150604084013567ffffffffffffffff81111561205f57600080fd5b8401601f8101861361207057600080fd5b61207f86823560208401611fe0565b9150509250925092565b6000806040838503121561209c57600080fd5b6120a583611e3d565b9150602083013580151581146120ba57600080fd5b809150509250929050565b600080600080608085870312156120db57600080fd5b6120e485611e3d565b93506120f260208601611e3d565b925060408501359150606085013567ffffffffffffffff81111561211557600080fd5b8501601f8101871361212657600080fd5b61213587823560208401611fe0565b91505092959194509250565b6000806040838503121561215457600080fd5b61215d83611e3d565b915061216b60208401611e3d565b90509250929050565b634e487b7160e01b600052603260045260246000fd5b634e487b7160e01b600052601160045260246000fd5b6000600182016121b2576121b261218a565b5060010190565b600181811c908216806121cd57607f821691505b60208210810361056657634e487b7160e01b600052602260045260246000fd5b6020808252602d908201527f4552433732313a2063616c6c6572206973206e6f7420746f6b656e206f776e6560408201526c1c881bdc88185c1c1c9bdd9959609a1b606082015260800190565b634e487b7160e01b600052601260045260246000fd5b60008261225f5761225f61223a565b500490565b60008251612276818460208701611db9565b9190910192915050565b60608152600080855481600182811c9150808316806122a057607f831692505b602080841082036122bf57634e487b7160e01b86526022600452602486fd5b60608801849052608088018280156122de57600181146122ef5761231a565b60ff1987168252828201975061231a565b60008d81526020902060005b87811015612314578154848201529086019084016122fb565b83019850505b50508701989098525050506040909201929092529392505050565b60006020828403121561234757600080fd5b815167ffffffffffffffff81111561235e57600080fd5b8201601f8101841361236f57600080fd5b805161237d611fee82611fb8565b81815285602083850101111561239257600080fd5b6123a3826020830160208601611db9565b95945050505050565b600082198211156123bf576123bf61218a565b500190565b6000828210156123d6576123d661218a565b500390565b60208082526025908201527f4552433732313a207472616e736665722066726f6d20696e636f72726563742060408201526437bbb732b960d91b606082015260800190565b60008261242f5761242f61223a565b500690565b634e487b7160e01b600052603160045260246000fdfea26469706673582212206772ed1e94f273c0d89d8540e47b1cc67936c37676a91fdcfea64a3df78ca9bd64736f6c634300080d0033a26469706673582212207c7e97a49985d35dc30ae9cb32fd3e27c550938e3874bb8993174177fee37b1b64736f6c634300080d0033",
    "linkReferences": {
      "src/SVGGeneration.sol": {
        "SVGGeneration": [
          {
            "start": 7587,
            "length": 20
          }
        ]
      }
    }
  },
  "methodIdentifiers": {
    "apps(uint256)": "61acc37e",
    "getApps()": "d66d756d",
    "registerApp((string,string,string,string,string,string,string,address[]))": "d6f00748"
  },
  "id": 31
}