{
  "abi": [
    {
      "inputs": [
        {
          "components": [
            {
              "internalType": "string",
              "name": "name",
              "type": "string"
            },
            {
              "internalType": "string",
              "name": "fullName",
              "type": "string"
            },
            {
              "internalType": "string",
              "name": "tag",
              "type": "string"
            },
            {
              "internalType": "string",
              "name": "symbol",
              "type": "string"
            },
            {
              "internalType": "string",
              "name": "logoURI",
              "type": "string"
            },
            {
              "internalType": "string",
              "name": "description",
              "type": "string"
            },
            {
              "internalType": "address[]",
              "name": "admins",
              "type": "address[]"
            }
          ],
          "internalType": "struct ReputyApp.InitParams",
          "name": "params",
          "type": "tuple"
        }
      ],
      "stateMutability": "nonpayable",
      "type": "constructor"
    },
    {
      "inputs": [],
      "name": "AdminAccessRequired",
      "type": "error"
    },
    {
      "inputs": [],
      "name": "InvalidRatingUpdate",
      "type": "error"
    },
    {
      "inputs": [],
      "name": "NonTransferrableNFT",
      "type": "error"
    },
    {
      "anonymous": false,
      "inputs": [
        {
          "indexed": true,
          "internalType": "address",
          "name": "owner",
          "type": "address"
        },
        {
          "indexed": true,
          "internalType": "address",
          "name": "approved",
          "type": "address"
        },
        {
          "indexed": true,
          "internalType": "uint256",
          "name": "tokenId",
          "type": "uint256"
        }
      ],
      "name": "Approval",
      "type": "event"
    },
    {
      "anonymous": false,
      "inputs": [
        {
          "indexed": true,
          "internalType": "address",
          "name": "owner",
          "type": "address"
        },
        {
          "indexed": true,
          "internalType": "address",
          "name": "operator",
          "type": "address"
        },
        {
          "indexed": false,
          "internalType": "bool",
          "name": "approved",
          "type": "bool"
        }
      ],
      "name": "ApprovalForAll",
      "type": "event"
    },
    {
      "anonymous": false,
      "inputs": [
        {
          "indexed": false,
          "internalType": "address",
          "name": "user",
          "type": "address"
        },
        {
          "indexed": false,
          "internalType": "uint256",
          "name": "addRating",
          "type": "uint256"
        },
        {
          "indexed": false,
          "internalType": "uint256",
          "name": "newRating",
          "type": "uint256"
        },
        {
          "indexed": false,
          "internalType": "string",
          "name": "action",
          "type": "string"
        }
      ],
      "name": "RatingAdd",
      "type": "event"
    },
    {
      "anonymous": false,
      "inputs": [
        {
          "indexed": false,
          "internalType": "address",
          "name": "user",
          "type": "address"
        },
        {
          "indexed": false,
          "internalType": "uint256",
          "name": "newRating",
          "type": "uint256"
        },
        {
          "indexed": false,
          "internalType": "string",
          "name": "action",
          "type": "string"
        }
      ],
      "name": "RatingSet",
      "type": "event"
    },
    {
      "anonymous": false,
      "inputs": [
        {
          "indexed": false,
          "internalType": "address",
          "name": "user",
          "type": "address"
        },
        {
          "indexed": false,
          "internalType": "uint256",
          "name": "subRating",
          "type": "uint256"
        },
        {
          "indexed": false,
          "internalType": "uint256",
          "name": "newRating",
          "type": "uint256"
        },
        {
          "indexed": false,
          "internalType": "string",
          "name": "action",
          "type": "string"
        }
      ],
      "name": "RatingSub",
      "type": "event"
    },
    {
      "anonymous": false,
      "inputs": [
        {
          "indexed": true,
          "internalType": "address",
          "name": "from",
          "type": "address"
        },
        {
          "indexed": true,
          "internalType": "address",
          "name": "to",
          "type": "address"
        },
        {
          "indexed": true,
          "internalType": "uint256",
          "name": "tokenId",
          "type": "uint256"
        }
      ],
      "name": "Transfer",
      "type": "event"
    },
    {
      "inputs": [],
      "name": "LEVEL_DIVIDER",
      "outputs": [
        {
          "internalType": "uint256",
          "name": "",
          "type": "uint256"
        }
      ],
      "stateMutability": "view",
      "type": "function"
    },
    {
      "inputs": [],
      "name": "LEVEL_NUMBER",
      "outputs": [
        {
          "internalType": "uint256",
          "name": "",
          "type": "uint256"
        }
      ],
      "stateMutability": "view",
      "type": "function"
    },
    {
      "inputs": [],
      "name": "MAX_RATING",
      "outputs": [
        {
          "internalType": "uint256",
          "name": "",
          "type": "uint256"
        }
      ],
      "stateMutability": "view",
      "type": "function"
    },
    {
      "inputs": [],
      "name": "MIN_RATING",
      "outputs": [
        {
          "internalType": "uint256",
          "name": "",
          "type": "uint256"
        }
      ],
      "stateMutability": "view",
      "type": "function"
    },
    {
      "inputs": [
        {
          "internalType": "address",
          "name": "newAdmin",
          "type": "address"
        }
      ],
      "name": "addAdmin",
      "outputs": [],
      "stateMutability": "nonpayable",
      "type": "function"
    },
    {
      "inputs": [
        {
          "internalType": "address",
          "name": "user",
          "type": "address"
        },
        {
          "internalType": "uint256",
          "name": "delta",
          "type": "uint256"
        },
        {
          "internalType": "string",
          "name": "action",
          "type": "string"
        }
      ],
      "name": "addRating",
      "outputs": [],
      "stateMutability": "nonpayable",
      "type": "function"
    },
    {
      "inputs": [],
      "name": "appConfig",
      "outputs": [
        {
          "internalType": "string",
          "name": "name",
          "type": "string"
        },
        {
          "internalType": "string",
          "name": "fullName",
          "type": "string"
        },
        {
          "internalType": "string",
          "name": "tag",
          "type": "string"
        },
        {
          "internalType": "string",
          "name": "symbol",
          "type": "string"
        },
        {
          "internalType": "string",
          "name": "logoURI",
          "type": "string"
        },
        {
          "internalType": "string",
          "name": "description",
          "type": "string"
        }
      ],
      "stateMutability": "view",
      "type": "function"
    },
    {
      "inputs": [
        {
          "internalType": "address",
          "name": "to",
          "type": "address"
        },
        {
          "internalType": "uint256",
          "name": "tokenId",
          "type": "uint256"
        }
      ],
      "name": "approve",
      "outputs": [],
      "stateMutability": "nonpayable",
      "type": "function"
    },
    {
      "inputs": [
        {
          "internalType": "address",
          "name": "owner",
          "type": "address"
        }
      ],
      "name": "balanceOf",
      "outputs": [
        {
          "internalType": "uint256",
          "name": "",
          "type": "uint256"
        }
      ],
      "stateMutability": "view",
      "type": "function"
    },
    {
      "inputs": [
        {
          "internalType": "uint256",
          "name": "tokenId",
          "type": "uint256"
        }
      ],
      "name": "getApproved",
      "outputs": [
        {
          "internalType": "address",
          "name": "",
          "type": "address"
        }
      ],
      "stateMutability": "view",
      "type": "function"
    },
    {
      "inputs": [],
      "name": "getUsers",
      "outputs": [
        {
          "components": [
            {
              "internalType": "address",
              "name": "user",
              "type": "address"
            },
            {
              "internalType": "uint256",
              "name": "rating",
              "type": "uint256"
            }
          ],
          "internalType": "struct ReputyApp.UserRating[]",
          "name": "",
          "type": "tuple[]"
        }
      ],
      "stateMutability": "view",
      "type": "function"
    },
    {
      "inputs": [
        {
          "internalType": "address",
          "name": "owner",
          "type": "address"
        },
        {
          "internalType": "address",
          "name": "operator",
          "type": "address"
        }
      ],
      "name": "isApprovedForAll",
      "outputs": [
        {
          "internalType": "bool",
          "name": "",
          "type": "bool"
        }
      ],
      "stateMutability": "view",
      "type": "function"
    },
    {
      "inputs": [],
      "name": "name",
      "outputs": [
        {
          "internalType": "string",
          "name": "",
          "type": "string"
        }
      ],
      "stateMutability": "view",
      "type": "function"
    },
    {
      "inputs": [
        {
          "internalType": "uint256",
          "name": "tokenId",
          "type": "uint256"
        }
      ],
      "name": "ownerOf",
      "outputs": [
        {
          "internalType": "address",
          "name": "",
          "type": "address"
        }
      ],
      "stateMutability": "view",
      "type": "function"
    },
    {
      "inputs": [
        {
          "internalType": "address",
          "name": "from",
          "type": "address"
        },
        {
          "internalType": "address",
          "name": "to",
          "type": "address"
        },
        {
          "internalType": "uint256",
          "name": "tokenId",
          "type": "uint256"
        }
      ],
      "name": "safeTransferFrom",
      "outputs": [],
      "stateMutability": "nonpayable",
      "type": "function"
    },
    {
      "inputs": [
        {
          "internalType": "address",
          "name": "from",
          "type": "address"
        },
        {
          "internalType": "address",
          "name": "to",
          "type": "address"
        },
        {
          "internalType": "uint256",
          "name": "tokenId",
          "type": "uint256"
        },
        {
          "internalType": "bytes",
          "name": "data",
          "type": "bytes"
        }
      ],
      "name": "safeTransferFrom",
      "outputs": [],
      "stateMutability": "nonpayable",
      "type": "function"
    },
    {
      "inputs": [
        {
          "internalType": "address",
          "name": "operator",
          "type": "address"
        },
        {
          "internalType": "bool",
          "name": "approved",
          "type": "bool"
        }
      ],
      "name": "setApprovalForAll",
      "outputs": [],
      "stateMutability": "nonpayable",
      "type": "function"
    },
    {
      "inputs": [
        {
          "internalType": "address",
          "name": "user",
          "type": "address"
        },
        {
          "internalType": "uint256",
          "name": "newRating",
          "type": "uint256"
        },
        {
          "internalType": "string",
          "name": "action",
          "type": "string"
        }
      ],
      "name": "setRating",
      "outputs": [],
      "stateMutability": "nonpayable",
      "type": "function"
    },
    {
      "inputs": [
        {
          "internalType": "address",
          "name": "user",
          "type": "address"
        },
        {
          "internalType": "uint256",
          "name": "delta",
          "type": "uint256"
        },
        {
          "internalType": "string",
          "name": "action",
          "type": "string"
        }
      ],
      "name": "subRating",
      "outputs": [],
      "stateMutability": "nonpayable",
      "type": "function"
    },
    {
      "inputs": [
        {
          "internalType": "bytes4",
          "name": "interfaceId",
          "type": "bytes4"
        }
      ],
      "name": "supportsInterface",
      "outputs": [
        {
          "internalType": "bool",
          "name": "",
          "type": "bool"
        }
      ],
      "stateMutability": "view",
      "type": "function"
    },
    {
      "inputs": [],
      "name": "symbol",
      "outputs": [
        {
          "internalType": "string",
          "name": "",
          "type": "string"
        }
      ],
      "stateMutability": "view",
      "type": "function"
    },
    {
      "inputs": [
        {
          "internalType": "uint256",
          "name": "tokenId",
          "type": "uint256"
        }
      ],
      "name": "tokenURI",
      "outputs": [
        {
          "internalType": "string",
          "name": "",
          "type": "string"
        }
      ],
      "stateMutability": "view",
      "type": "function"
    },
    {
      "inputs": [
        {
          "internalType": "address",
          "name": "from",
          "type": "address"
        },
        {
          "internalType": "address",
          "name": "to",
          "type": "address"
        },
        {
          "internalType": "uint256",
          "name": "tokenId",
          "type": "uint256"
        }
      ],
      "name": "transferFrom",
      "outputs": [],
      "stateMutability": "nonpayable",
      "type": "function"
    },
    {
      "inputs": [
        {
          "internalType": "uint256",
          "name": "",
          "type": "uint256"
        }
      ],
      "name": "uniqueUsers",
      "outputs": [
        {
          "internalType": "address",
          "name": "",
          "type": "address"
        }
      ],
      "stateMutability": "view",
      "type": "function"
    },
    {
      "inputs": [
        {
          "internalType": "address",
          "name": "",
          "type": "address"
        }
      ],
      "name": "userRating",
      "outputs": [
        {
          "internalType": "uint256",
          "name": "",
          "type": "uint256"
        }
      ],
      "stateMutability": "view",
      "type": "function"
    }
  ],
  "bytecode": {
    "object": "0x60806040523480156200001157600080fd5b50604051620024c2380380620024c28339810160408190526200003491620003eb565b8060200151816060015181600090805190602001906200005692919062000145565b5080516200006c90600190602084019062000145565b505081518051839250600791620000899183916020019062000145565b506020828101518051620000a4926001850192019062000145565b5060408201518051620000c291600284019160209091019062000145565b5060608201518051620000e091600384019160209091019062000145565b5060808201518051620000fe91600484019160209091019062000145565b5060a082015180516200011c91600584019160209091019062000145565b5060c082015180516200013a916006840191602090910190620001d4565b509050505062000585565b828054620001539062000549565b90600052602060002090601f016020900481019282620001775760008555620001c2565b82601f106200019257805160ff1916838001178555620001c2565b82800160010185558215620001c2579182015b82811115620001c2578251825591602001919060010190620001a5565b50620001d09291506200022c565b5090565b828054828255906000526020600020908101928215620001c2579160200282015b82811115620001c257825182546001600160a01b0319166001600160a01b03909116178255602090920191600190910190620001f5565b5b80821115620001d057600081556001016200022d565b634e487b7160e01b600052604160045260246000fd5b60405160e081016001600160401b03811182821017156200027e576200027e62000243565b60405290565b604051601f8201601f191681016001600160401b0381118282101715620002af57620002af62000243565b604052919050565b600082601f830112620002c957600080fd5b81516001600160401b03811115620002e557620002e562000243565b6020620002fb601f8301601f1916820162000284565b82815285828487010111156200031057600080fd5b60005b838110156200033057858101830151828201840152820162000313565b83811115620003425760008385840101525b5095945050505050565b600082601f8301126200035e57600080fd5b815160206001600160401b038211156200037c576200037c62000243565b8160051b6200038d82820162000284565b9283528481018201928281019087851115620003a857600080fd5b83870192505b84831015620003e05782516001600160a01b0381168114620003d05760008081fd5b82529183019190830190620003ae565b979650505050505050565b600060208284031215620003fe57600080fd5b81516001600160401b03808211156200041657600080fd5b9083019060e082860312156200042b57600080fd5b6200043562000259565b8251828111156200044557600080fd5b6200045387828601620002b7565b8252506020830151828111156200046957600080fd5b6200047787828601620002b7565b6020830152506040830151828111156200049057600080fd5b6200049e87828601620002b7565b604083015250606083015182811115620004b757600080fd5b620004c587828601620002b7565b606083015250608083015182811115620004de57600080fd5b620004ec87828601620002b7565b60808301525060a0830151828111156200050557600080fd5b6200051387828601620002b7565b60a08301525060c0830151828111156200052c57600080fd5b6200053a878286016200034c565b60c08301525095945050505050565b600181811c908216806200055e57607f821691505b6020821081036200057f57634e487b7160e01b600052602260045260246000fd5b50919050565b611f2d80620005956000396000f3fe608060405234801561001057600080fd5b50600436106101725760003560e01c806370a08231116100de578063b88d4fde11610097578063dd7ad7c011610071578063dd7ad7c014610328578063e985e9c51461033b578063ed50c69914610377578063fa6414241461038a57600080fd5b8063b88d4fde146102fa578063bb0e4ea21461030d578063c87b56dd1461031557600080fd5b806370a08231146102a957806371b2c863146102bc5780637835b425146102c457806394e113ea146102d757806395d89b41146102df578063a22cb465146102e757600080fd5b80632c1fbeda116101305780632c1fbeda14610220578063302719641461023a57806342842e0e146102685780634e3e56951461027b5780636352211e14610283578063704802751461029657600080fd5b8062ce8e3e1461017757806301ffc9a71461019557806306fdde03146101b8578063081812fc146101cd578063095ea7b3146101f857806323b872dd1461020d575b600080fd5b61017f61039d565b60405161018c91906117cd565b60405180910390f35b6101a86101a3366004611825565b6104f0565b604051901515815260200161018c565b6101c0610542565b60405161018c91906118a7565b6101e06101db3660046118ba565b6105d4565b6040516001600160a01b03909116815260200161018c565b61020b6102063660046118ef565b6105fb565b005b61020b61021b366004611919565b610715565b610228610746565b60405161018c96959493929190611955565b61025a6102483660046119d7565b600e6020526000908152604090205481565b60405190815260200161018c565b61020b610276366004611919565b610a9e565b61025a610ab9565b6101e06102913660046118ba565b610ac8565b61020b6102a43660046119d7565b610b28565b61025a6102b73660046119d7565b610bee565b61025a600581565b61020b6102d2366004611a9f565b610c74565b61025a606481565b6101c0610d6e565b61020b6102f5366004611b0a565b610d7d565b61020b610308366004611b46565b610d8c565b61025a600081565b6101c06103233660046118ba565b610dc4565b61020b610336366004611a9f565b610e98565b6101a8610349366004611bc2565b6001600160a01b03918216600090815260056020908152604080832093909416825291909152205460ff1690565b6101e06103853660046118ba565b610faa565b61020b610398366004611a9f565b610fd4565b600f5460609060009067ffffffffffffffff8111156103be576103be6119f2565b60405190808252806020026020018201604052801561040357816020015b60408051808201909152600080825260208201528152602001906001900390816103dc5790505b50905060005b600f548110156104ea57600f818154811061042657610426611bf5565b9060005260206000200160009054906101000a90046001600160a01b031682828151811061045657610456611bf5565b6020026020010151600001906001600160a01b031690816001600160a01b031681525050600e6000600f838154811061049157610491611bf5565b60009182526020808320909101546001600160a01b0316835282019290925260400190205482518390839081106104ca576104ca611bf5565b6020908102919091018101510152806104e281611c21565b915050610409565b50919050565b60006001600160e01b031982166380ac58cd60e01b148061052157506001600160e01b03198216635b5e139f60e01b145b8061053c57506301ffc9a760e01b6001600160e01b03198316145b92915050565b60606000805461055190611c3a565b80601f016020809104026020016040519081016040528092919081815260200182805461057d90611c3a565b80156105ca5780601f1061059f576101008083540402835291602001916105ca565b820191906000526020600020905b8154815290600101906020018083116105ad57829003601f168201915b5050505050905090565b60006105df8261110d565b506000908152600460205260409020546001600160a01b031690565b600061060682610ac8565b9050806001600160a01b0316836001600160a01b0316036106785760405162461bcd60e51b815260206004820152602160248201527f4552433732313a20617070726f76616c20746f2063757272656e74206f776e656044820152603960f91b60648201526084015b60405180910390fd5b336001600160a01b038216148061069457506106948133610349565b6107065760405162461bcd60e51b815260206004820152603d60248201527f4552433732313a20617070726f76652063616c6c6572206973206e6f7420746f60448201527f6b656e206f776e6572206f7220617070726f76656420666f7220616c6c000000606482015260840161066f565b610710838361116f565b505050565b61071f33826111dd565b61073b5760405162461bcd60e51b815260040161066f90611c6e565b61071083838361125b565b60078054819061075590611c3a565b80601f016020809104026020016040519081016040528092919081815260200182805461078190611c3a565b80156107ce5780601f106107a3576101008083540402835291602001916107ce565b820191906000526020600020905b8154815290600101906020018083116107b157829003601f168201915b5050505050908060010180546107e390611c3a565b80601f016020809104026020016040519081016040528092919081815260200182805461080f90611c3a565b801561085c5780601f106108315761010080835404028352916020019161085c565b820191906000526020600020905b81548152906001019060200180831161083f57829003601f168201915b50505050509080600201805461087190611c3a565b80601f016020809104026020016040519081016040528092919081815260200182805461089d90611c3a565b80156108ea5780601f106108bf576101008083540402835291602001916108ea565b820191906000526020600020905b8154815290600101906020018083116108cd57829003601f168201915b5050505050908060030180546108ff90611c3a565b80601f016020809104026020016040519081016040528092919081815260200182805461092b90611c3a565b80156109785780601f1061094d57610100808354040283529160200191610978565b820191906000526020600020905b81548152906001019060200180831161095b57829003601f168201915b50505050509080600401805461098d90611c3a565b80601f01602080910402602001604051908101604052809291908181526020018280546109b990611c3a565b8015610a065780601f106109db57610100808354040283529160200191610a06565b820191906000526020600020905b8154815290600101906020018083116109e957829003601f168201915b505050505090806005018054610a1b90611c3a565b80601f0160208091040260200160405190810160405280929190818152602001828054610a4790611c3a565b8015610a945780601f10610a6957610100808354040283529160200191610a94565b820191906000526020600020905b815481529060010190602001808311610a7757829003601f168201915b5050505050905086565b61071083838360405180602001604052806000815250610d8c565b610ac560056064611cd1565b81565b6000818152600260205260408120546001600160a01b03168061053c5760405162461bcd60e51b8152602060048201526018602482015277115490cdcc8c4e881a5b9d985b1a59081d1bdad95b88125160421b604482015260640161066f565b6000805b600d54811015610b7c57600d805482908110610b4a57610b4a611bf5565b6000918252602090912001546001600160a01b03163303610b6a57600191505b80610b7481611c21565b915050610b2c565b5080610b9b57604051637eeb1e5160e11b815260040160405180910390fd5b50600d80546001810182556000919091527fd7b6990105719101dabeb77144f2a3385c8033acd3af97e9423a695e81ad1eb50180546001600160a01b0319166001600160a01b0392909216919091179055565b60006001600160a01b038216610c585760405162461bcd60e51b815260206004820152602960248201527f4552433732313a2061646472657373207a65726f206973206e6f7420612076616044820152683634b21037bbb732b960b91b606482015260840161066f565b506001600160a01b031660009081526003602052604090205490565b6000805b600d54811015610cc857600d805482908110610c9657610c96611bf5565b6000918252602090912001546001600160a01b03163303610cb657600191505b80610cc081611c21565b915050610c78565b5080610ce757604051637eeb1e5160e11b815260040160405180910390fd5b6064831115610d095760405163bd62220b60e01b815260040160405180910390fd5b6001600160a01b0384166000908152600e60205260409020839055610d2d846113cc565b7fa434c2dff3c65afb7bcf9d1af00b4212c55c549557c57cd3c8516eeedd50c920848484604051610d6093929190611ce5565b60405180910390a150505050565b60606001805461055190611c3a565b610d88338383611452565b5050565b610d9633836111dd565b610db25760405162461bcd60e51b815260040161066f90611c6e565b610dbe84848484611520565b50505050565b6060610dcf8261110d565b6000600e6000610dde85610ac8565b6001600160a01b03166001600160a01b031681526020019081526020016000205490506000610e0c82611539565b60405163262535ab60e01b815290915073__$73404bca215039ad2d3acfcbae96071684$__9063262535ab90610e4b9060079086908690600401611d15565b600060405180830381865af4158015610e68573d6000803e3d6000fd5b505050506040513d6000823e601f3d908101601f19168201604052610e909190810190611dca565b949350505050565b6000805b600d54811015610eec57600d805482908110610eba57610eba611bf5565b6000918252602090912001546001600160a01b03163303610eda57600191505b80610ee481611c21565b915050610e9c565b5080610f0b57604051637eeb1e5160e11b815260040160405180910390fd5b6001600160a01b0384166000908152600e6020526040902054610f3a90610f33908590611e38565b6064611585565b6001600160a01b0385166000908152600e6020526040902055610f5c846113cc565b6001600160a01b0384166000908152600e6020526040908190205490517fa4a6ce47d880603714b4a1cc0548f5cc560cd09e50b04ac1ba83d3b7d6fb541d91610d6091879187918790611e50565b600f8181548110610fba57600080fd5b6000918252602090912001546001600160a01b0316905081565b6000805b600d5481101561102857600d805482908110610ff657610ff6611bf5565b6000918252602090912001546001600160a01b0316330361101657600191505b8061102081611c21565b915050610fd8565b508061104757604051637eeb1e5160e11b815260040160405180910390fd5b6001600160a01b0384166000908152600e602052604090205461106b908490611585565b6001600160a01b0385166000908152600e602052604090205490935061109d90611096908590611e87565b600061159d565b6001600160a01b0385166000908152600e60205260409020556110bf846113cc565b6001600160a01b0384166000908152600e6020526040908190205490517f7b97666b7336bde4e3937350e06e077c4abb1b8e67fe61c8e2472c6ff80c87a391610d6091879187918790611e50565b6000818152600260205260409020546001600160a01b031661116c5760405162461bcd60e51b8152602060048201526018602482015277115490cdcc8c4e881a5b9d985b1a59081d1bdad95b88125160421b604482015260640161066f565b50565b600081815260046020526040902080546001600160a01b0319166001600160a01b03841690811790915581906111a482610ac8565b6001600160a01b03167f8c5be1e5ebec7d5bd14f71427d1e84f3dd0314c0f7b2291e5b200ac8c7c3b92560405160405180910390a45050565b6000806111e983610ac8565b9050806001600160a01b0316846001600160a01b0316148061123057506001600160a01b0380821660009081526005602090815260408083209388168352929052205460ff165b80610e905750836001600160a01b0316611249846105d4565b6001600160a01b031614949350505050565b826001600160a01b031661126e82610ac8565b6001600160a01b0316146112945760405162461bcd60e51b815260040161066f90611e9e565b6001600160a01b0382166112f65760405162461bcd60e51b8152602060048201526024808201527f4552433732313a207472616e7366657220746f20746865207a65726f206164646044820152637265737360e01b606482015260840161066f565b61130383838360016115ac565b826001600160a01b031661131682610ac8565b6001600160a01b03161461133c5760405162461bcd60e51b815260040161066f90611e9e565b600081815260046020908152604080832080546001600160a01b03199081169091556001600160a01b0387811680865260038552838620805460001901905590871680865283862080546001019055868652600290945282852080549092168417909155905184937fddf252ad1be2c89b69c2b068fc378daa952ba7f163c4a11628f55a4df523b3ef91a4505050565b6113d581610bee565b60000361116c576113ea600680546001019055565b60006113f560065490565b90506114018282611634565b50600f80546001810182556000919091527f8d1108e10bcb7c27dddfc02ed9d693a074039d026cf4ea4240b40f7d581ac8020180546001600160a01b0383166001600160a01b031990911617905550565b816001600160a01b0316836001600160a01b0316036114b35760405162461bcd60e51b815260206004820152601960248201527f4552433732313a20617070726f766520746f2063616c6c657200000000000000604482015260640161066f565b6001600160a01b03838116600081815260056020908152604080832094871680845294825291829020805460ff191686151590811790915591519182527f17307eab39ab6107e8899845ad3d59bd9653f200f220920489ca2b5937696c31910160405180910390a3505050565b604051636ccac49560e11b815260040160405180910390fd5b60008061154860056064611cd1565b6115529084611cd1565b90508215806115765750600061156a60056064611cd1565b6115749085611ee3565b115b1561053c5780610e9081611c21565b60008183106115945781611596565b825b9392505050565b60008183116115945781611596565b6001811115610dbe576001600160a01b038416156115f2576001600160a01b038416600090815260036020526040812080548392906115ec908490611e87565b90915550505b6001600160a01b03831615610dbe576001600160a01b03831660009081526003602052604081208054839290611629908490611e38565b909155505050505050565b6001600160a01b03821661168a5760405162461bcd60e51b815260206004820181905260248201527f4552433732313a206d696e7420746f20746865207a65726f2061646472657373604482015260640161066f565b6000818152600260205260409020546001600160a01b0316156116ef5760405162461bcd60e51b815260206004820152601c60248201527f4552433732313a20746f6b656e20616c7265616479206d696e74656400000000604482015260640161066f565b6116fd6000838360016115ac565b6000818152600260205260409020546001600160a01b0316156117625760405162461bcd60e51b815260206004820152601c60248201527f4552433732313a20746f6b656e20616c7265616479206d696e74656400000000604482015260640161066f565b6001600160a01b038216600081815260036020908152604080832080546001019055848352600290915280822080546001600160a01b0319168417905551839291907fddf252ad1be2c89b69c2b068fc378daa952ba7f163c4a11628f55a4df523b3ef908290a45050565b602080825282518282018190526000919060409081850190868401855b8281101561181857815180516001600160a01b031685528601518685015292840192908501906001016117ea565b5091979650505050505050565b60006020828403121561183757600080fd5b81356001600160e01b03198116811461159657600080fd5b60005b8381101561186a578181015183820152602001611852565b83811115610dbe5750506000910152565b6000815180845261189381602086016020860161184f565b601f01601f19169290920160200192915050565b602081526000611596602083018461187b565b6000602082840312156118cc57600080fd5b5035919050565b80356001600160a01b03811681146118ea57600080fd5b919050565b6000806040838503121561190257600080fd5b61190b836118d3565b946020939093013593505050565b60008060006060848603121561192e57600080fd5b611937846118d3565b9250611945602085016118d3565b9150604084013590509250925092565b60c08152600061196860c083018961187b565b828103602084015261197a818961187b565b9050828103604084015261198e818861187b565b905082810360608401526119a2818761187b565b905082810360808401526119b6818661187b565b905082810360a08401526119ca818561187b565b9998505050505050505050565b6000602082840312156119e957600080fd5b611596826118d3565b634e487b7160e01b600052604160045260246000fd5b604051601f8201601f1916810167ffffffffffffffff81118282101715611a3157611a316119f2565b604052919050565b600067ffffffffffffffff821115611a5357611a536119f2565b50601f01601f191660200190565b6000611a74611a6f84611a39565b611a08565b9050828152838383011115611a8857600080fd5b828260208301376000602084830101529392505050565b600080600060608486031215611ab457600080fd5b611abd846118d3565b925060208401359150604084013567ffffffffffffffff811115611ae057600080fd5b8401601f81018613611af157600080fd5b611b0086823560208401611a61565b9150509250925092565b60008060408385031215611b1d57600080fd5b611b26836118d3565b915060208301358015158114611b3b57600080fd5b809150509250929050565b60008060008060808587031215611b5c57600080fd5b611b65856118d3565b9350611b73602086016118d3565b925060408501359150606085013567ffffffffffffffff811115611b9657600080fd5b8501601f81018713611ba757600080fd5b611bb687823560208401611a61565b91505092959194509250565b60008060408385031215611bd557600080fd5b611bde836118d3565b9150611bec602084016118d3565b90509250929050565b634e487b7160e01b600052603260045260246000fd5b634e487b7160e01b600052601160045260246000fd5b600060018201611c3357611c33611c0b565b5060010190565b600181811c90821680611c4e57607f821691505b6020821081036104ea57634e487b7160e01b600052602260045260246000fd5b6020808252602d908201527f4552433732313a2063616c6c6572206973206e6f7420746f6b656e206f776e6560408201526c1c881bdc88185c1c1c9bdd9959609a1b606082015260800190565b634e487b7160e01b600052601260045260246000fd5b600082611ce057611ce0611cbb565b500490565b60018060a01b0384168152826020820152606060408201526000611d0c606083018461187b565b95945050505050565b60608152600080855481600182811c915080831680611d3557607f831692505b60208084108203611d5457634e487b7160e01b86526022600452602486fd5b6060880184905260808801828015611d735760018114611d8457611daf565b60ff19871682528282019750611daf565b60008d81526020902060005b87811015611da957815484820152908601908401611d90565b83019850505b50508701989098525050506040909201929092529392505050565b600060208284031215611ddc57600080fd5b815167ffffffffffffffff811115611df357600080fd5b8201601f81018413611e0457600080fd5b8051611e12611a6f82611a39565b818152856020838501011115611e2757600080fd5b611d0c82602083016020860161184f565b60008219821115611e4b57611e4b611c0b565b500190565b60018060a01b0385168152836020820152826040820152608060608201526000611e7d608083018461187b565b9695505050505050565b600082821015611e9957611e99611c0b565b500390565b60208082526025908201527f4552433732313a207472616e736665722066726f6d20696e636f72726563742060408201526437bbb732b960d91b606082015260800190565b600082611ef257611ef2611cbb565b50069056fea26469706673582212202319443636bebd083eb5b2854a18df7bc8fb5413d6b48894d8e77000b1857c8d64736f6c634300080d0033",
    "linkReferences": {
      "src/SVGGeneration.sol": {
        "SVGGeneration": [
          {
            "start": 5043,
            "length": 20
          }
        ]
      }
    }
  },
  "methodIdentifiers": {
    "LEVEL_DIVIDER()": "4e3e5695",
    "LEVEL_NUMBER()": "71b2c863",
    "MAX_RATING()": "94e113ea",
    "MIN_RATING()": "bb0e4ea2",
    "addAdmin(address)": "70480275",
    "addRating(address,uint256,string)": "dd7ad7c0",
    "appConfig()": "2c1fbeda",
    "approve(address,uint256)": "095ea7b3",
    "balanceOf(address)": "70a08231",
    "getApproved(uint256)": "081812fc",
    "getUsers()": "00ce8e3e",
    "isApprovedForAll(address,address)": "e985e9c5",
    "name()": "06fdde03",
    "ownerOf(uint256)": "6352211e",
    "safeTransferFrom(address,address,uint256)": "42842e0e",
    "safeTransferFrom(address,address,uint256,bytes)": "b88d4fde",
    "setApprovalForAll(address,bool)": "a22cb465",
    "setRating(address,uint256,string)": "7835b425",
    "subRating(address,uint256,string)": "fa641424",
    "supportsInterface(bytes4)": "01ffc9a7",
    "symbol()": "95d89b41",
    "tokenURI(uint256)": "c87b56dd",
    "transferFrom(address,address,uint256)": "23b872dd",
    "uniqueUsers(uint256)": "ed50c699",
    "userRating(address)": "30271964"
  },
  "id": 28
}